:04000000020059326F
:03000B000202D816
:0100130032BA
:01001B0032B2
:0100230032AA
:01002B0032A2
:01003300329A
:01003B003292
:01004300328A
:01004B003282
:0300530002040D97
:0300B200020056F3
:0300560002044C55
:2000B50075A28075950275B57D7584007585007580FF75912E7592DD7590A875BF0075BECE
:2000D5000A75985075BD0375D20475D39475D16053A7FB758902758810758C5A75A8C275F1
:2000F500D1632253241CE5805403FF4224E52490073093F5247401B52435E525B52425C317
:20011500E522648094E4501C740125264006E526FF04F5260522E526C313FF747F5F25222C
:20013500F5228049752201852425752600803E7402B52439E525B5242BC3741C8522F06328
:20015500F08095F0501E740125264006E526FF04F5261522E526C313FF747F5FD39522F411
:20017500F52280097522FF85242575260053271CE580C45403FF4227E52790073093F527CB
:200195007401B52735E528B52725C3E523648094E4501C740125294006E529FF04F52905E6
:2001B50023E529C313FF747F5F2523F5238049752301852728752900803E7402B52739E570
:2001D50028B5272BC3741C8523F063F08095F0501E740125294006E529FF04F5291523E5D5
:2001F50029C313FF747F5FD39523F4F52380097523FF852728752900E52A6004152A800F30
:20021500752AAFE52660021526E5296002152922AE82AF838E9910990280FB8E828F832210
:20023500AF828F09750A00750B00750C009011CCE4F5F01206A2AC82AD83AEF0FFEC4D4EEE
:200255004F60127587011CBCFF091DBDFF051EBEFF011F80E822B202A202B3E433FF24FF44
:200275009201A2029203300221A2029294EF24FF9293A2029290A2029291A20392967582F8
:200295001E120235A2019297802EA2019297744CC0E07407C0E01205991581158175820A44
:2002B500120235A2039296A2029290A2029291A2029294A202B3929322300206B201A20190
:2002D500929722C021C0E0C0F0C082C083C007C006C005C004C003C002C001C000C0D075E7
:2002F500D010E52E252EF52EA295B3E433FFAE2E4E90053393F52E7421B52E0B752D00753E
:200315002C00752B008055742AB52E0474018001E4FF70057432B52E43EF6004D2058007D7
:200335007432B52E02C205052D7401B52D06A2059204802874F9252D4012E52C25E0F52C9A
:20035500AF2CA205E433FE4FF52C8010E52B25E0F52BAF2BA205E433FE4FF52BE52F60043F
:20037500152F800C752F0875D0001200F875D010D0D0D000D001D002D003D004D005D006E3
:20039500D007D083D082D0F0D0E0D02132740CB52D65E52C705EA206300401B35021AF2BB8
:2003B500BF0102800ABF0C02800DBF0D12800D20020D12026B800812026B80031202CEA25B
:2003D50002502DA204E433FFA206E4336207EF3395E0FEAC2B7D00C007C006C004C0057432
:2003F50056C0E07407C0E0120599E58124FAF581A2049206752D0022C0E0C0D075D010D2D4
:2004150000E580F4FF74CC5FF530E5306021E5317007853031F5328016E530B5310B74FF6C
:20043500B53202800A0532800685303175320075D163D0D0D0E0321200B5D20112026B2086
:20045500000302052C1203A2E53060030204E4AF31BF0402800FBF08028022BF40028038E0
:20047500BF8069804E74FB2532400D3002051202CE805912026B805412026B804FAE327FEC
:2004950000C006C0077461C0E07407C0E0120599E58124FCF5818034AE327F00C006C007DE
:2004B500746AC0E07407C0E0120599E58124FCF5818019AE327F00C006C0077473C0E07462
:2004D50007C0E0120599E58124FCF581753100E5226020AE22E5223395E0FFC006C0077408
:2004F5007CC0E07407C0E0120599E58124FCF581752200E5236020AE23E5233395E0FFC0A5
:1E05150006C0077485C0E07407C0E0120599E58124FCF581752300758701020454228A
:20073000030713030B0703030B070F030B030F0117031303171B1303171B030273687574BC
:06075000646F776E0A00E1
:200533000100020003000400050006000700080009000A000B000C000D000E000F00100020
:2005530011001200130014001415001600171A181A191A001B001C001D1F1E1F001F00207A
:2005730000212322232B242B25002628272800280029002A2322232C002D302E302F30007A
:0605930031003200222BB2
:200756005243352025642025640A004B6579412025640A004B6579422025640A004B6579F9
:18077600432025640A00456E63412025640A00456E63422025640A0060
:06008800E478FFF6D8FD4C
:200066007900E94400601B7A0090078E780175A000E493F2A308B8000205A0D9F4DAF275AB
:02008600A0FFD9
:20059900C008858108E50824FDF8868318868218E493A324DB600C2425600512068780F0E3
:2005B90002069FD2D5E493A3C083C082B4731486F0188683188682181207106054A3120693
:2005D9008780F5B4630818E6181206878043B46417E630E74618E6F42401F608E6F43400DA
:2005F900F6742D1206878033B4782D868318868218E4120678E583120677E583120678E517
:2006190082120677E58212067830D5057430120687D082D0830205A9B475F6E6FA18E6F921
:20063900187C107D27120662FF7CE87D03120662C4F5837C647D001206624283E975F00A52
:2006590084C445F0F582EF80A97B000BC3E99CF9EA9DFA50F61BE92CF9EA3DFAEB22C45478
:200679000F700320D51FC2D52490D43440D4C083C082C0F0F582E8C0E0120225D0E0F8D07F
:09069900F0D082D08322D00822A7
:2006A200AAF0FBE5828509F0A4FCADF0E5838509F0A42DFDE435F0FEE582850AF0A42DFD12
:2006C200E5F03EFEE433FFEA8509F0A42EFEE5F03FFFE583850AF0A42EFEE5F03FFFE58275
:2006E200850BF0A42EFEE5F03FFFEB8509F0A42FFFEA850AF0A42FFFE583850BF0A42FFF65
:0E070200E582850CF0A42F8EF08D838C822270
:20008E007800E84400600A790175A000E4F309D8FC7800E84400600C7900900001E4F0A370
:0400AE00D8FCD9FAA7
:0D00590075813212072CE58260030200560B
:1C07100020F71430F6148883A88220F507E6A88375830022E280F7E49322E022F8
:04072C0075820022B0
:00000001FF
